:020000040800F2
:10000000700F0020C10100089F200008191F000880
:100010009D200008950D0008012700080000000041
:10002000000000000000000000000000792100082E
:10003000970D000800000000C12000087B21000887
:10004000DB010008DB010008DB010008DB01000820
:10005000DB010008DB010008DB010008DB01000810
:10006000DB010008DB010008DB010008DB01000800
:10007000DB010008DB010008DB010008DB010008F0
:10008000DB010008DB010008DB010008DB010008E0
:10009000DB010008DB010008DB010008DB010008D0
:1000A000DB010008DB010008DB010008DB010008C0
:1000B000DB010008DB010008DB010008DB010008B0
:1000C000DB010008DB010008DB010008DB010008A0
:1000D000DB010008AD260008DB010008DB01000899
:1000E000DB010008DB010008DB010008DB01000880
:1000F000DB010008DB010008DB010008DB01000870
:10010000DB010008DB010008DB010008DB0100085F
:10011000DB010008DB010008DB010008DB0100084F
:10012000DB010008DB010008DB010008DB0100083F
:10013000DB010008DB010008DB010008DB0100082F
:10014000DB010008DB010008DB010008DB0100081F
:10015000DB010008DB010008DB010008DB0100080F
:10016000DB010008DB010008DB010008DB010008FF
:10017000DB010008DB010008DB01000800000000D3
:10018000DB010008DB010008DB010008DB010008DF
:10019000DB010008DB010008DB010008DB010008CF
:1001A000DB010008DB010008DB010008DFF80CD0F0
:1001B00000F068FB0048004761AA0008700F0020AB
:1001C0000648804706480047FEE7FEE7FEE7FEE7F1
:1001D000FEE7FEE7FEE7FEE7FEE7FEE72D2200086A
:1001E000AD0100082DE9F05F0546002092469B46D0
:1001F00088460646814640241BE02846414647463D
:10020000224600F020F853465A46C01A914110D3B6
:1002100011461846224600F0D9F92D1A67EB01085D
:100220004F4622460120002100F0D0F917EB0009CB
:100230004E41201EA4F10104DFDC484631462A4627
:100240004346BDE8F09F202A04DB203A21FA02F061
:100250000021704721FA02F3D040C2F12002914000
:1002600008431946704740EA01039B0703D009E0A1
:1002700008C9121F08C0042AFAD203E011F8013B92
:1002800000F8013B521EF9D27047D2B201E000F8EB
:10029000012B491EFBD270470022F6E710B513462A
:1002A0000A4604461946FFF7F0FF204610BD2DE927
:1002B000FE4F804681EA0300C00F0C46009021F0FB
:1002C000004123F00045B8EB0200A94105D24046A9
:1002D000214690461C460B46024623F00040104340
:1002E00047D0270DC7F30A00C3F30A510290401A02
:1002F000019040286BDAC3F3130040F4801B009890
:10030000924620B10023D2EB030A63EB0B0B01985A
:100310005946C0F14002504600F058F906460D46D5
:1003200050465946019A00F060F910EB080061410F
:10033000002487EA115284EAE7731A4340D0009AF6
:1003400062B3019A012A4FEA075215DC001B61EBE8
:1003500002014FF0004202EA0752CDE90042001CC0
:1003600041F5801132462B4600F0CFF903B0BDE8CD
:10037000F08F40462146F9E7001B61EB0201001CAB
:1003800041F5801300185B412018A2F5001747EBD8
:10039000030140EAD570B6196D4111E06D084FEACE
:1003A000360645EAC0754FEA0752001B61EB0201B1
:1003B000001C41F5801149084FEA300000195141F5
:1003C00032462B4603B0BDE8F04F00F08FB90098DD
:1003D000012240000023D0EB020263EBE07300989F
:1003E00021464FEAE074B8EB000061EB0401E9E755
:1003F00083F000435BE781F0004158E72DE9FE4FB1
:1004000081EA030404F0004421F0004100944FF01D
:10041000000B23F0004350EA01045ED052EA0304CB
:100420005BD0C3F30A54C1F30A552C44A4F2F3344D
:100430000194A0FB0254C1F3130141F48011C3F3F2
:10044000130343F4801301FB024400FB034E840AB0
:10045000970A44EA815447EA8357A4FB0768029548
:100460008D0A05FB07854FEA932C04FB0C542705E6
:10047000029D4FEA065847EA1637B5EB08056EEBC2
:10048000070C870E920E47EA811742EA8312A7FBF8
:100490000201B6EB0B0164EB00042B0D43EA0C33B5
:1004A0005E1844EB1C50DA465146E7FB0201C5F3E7
:1004B00013044FEA0B3343EA14534FEA0432019C0E
:1004C00043EA0603A4F10C040294009CCDE900B4B5
:1004D00000F01BF903B0BDE8F08F00200146F9E7FA
:1004E0000EB540F2334102910021CDE900110A46D8
:1004F0000B4600F00AF903B000BD70B5C1F30A5213
:1005000001F000450024C1F3130140F2FF3341F430
:1005100080119A4201DA002070BD40F233439A42C2
:10052000A2F2334203DC5242FFF78DFE00E090401E
:100530002C43F1D0404270BDC1F30A5210B5C1F353
:10054000130140F2FF3341F480119A4201DA002096
:1005500010BD40F233439A42A2F2334203DC5242CE
:10056000FFF771FE10BD904010BDC1F30A52C1F3F8
:10057000130140F2FF3341F480119A4202DA002065
:100580000146704740F233439A42A2F2334202DC02
:100590005242FFF758BE00F019B8000030B5041EF3
:1005A00071F1000404DB4FF00044404264EB0101B0
:1005B000141E73F1000405DB1C464FF00043524249
:1005C00063EB04038B4208BF824230BD202A04DB68
:1005D000203A00FA02F1002070479140C2F1200356
:1005E00020FA03F3194390407047202A06DBCB170B
:1005F000203A41FA02F043EAE07306E041FA02F3DE
:10060000D040C2F120029140084319467047426829
:1006100042B1016811F8013B23B1521EC0E900123A
:10062000184670470121C160881E704742685AB160
:10063000C368016843B983688B4205D0491E521CC8
:10064000C0E90012002070474FF0FF3070470000F3
:100650000FB4002300B589B00CA900910B996FF07D
:100660000042CB601E4B06931E4B07930423CDE93B
:1006700001321D4A089202466B46002000F0AEF996
:1006800009B05DF814FB70B586B006464FF0FF3038
:100690000091CDE90101002015460C460490324638
:1006A000694604A8FFF7D4FF02460498211825B133
:1006B00008B1084600E020462860049800280DD0C4
:1006C000002A02DD0098884208D0081B0094CDE97A
:1006D00001043246694604A8FFF7BAFF06B070BDB0
:1006E0000F0600082D060008A908000810B5141E02
:1006F00073F1000408DA401C41F1000192185B41DB
:100700001A4301D120F0010010BD2DE9F04D9246B1
:100710009B4611B1B1FA81F202E0B0FA80F22032C8
:100720009046FFF753FF04460F4640EA0A0041EAAD
:100730000B0153465A46084313D0114653EA0100B1
:1007400019D0C8F140025046FFF77DFD05460E4620
:10075000504659464246FFF739FF084305D001206D
:1007600004E020463946BDE8F08D0020054346EA06
:10077000E0762C4337430A986305E40AA0EB0800AF
:100780000022FD0A44EA47540A3002D500200146FF
:10079000E9E7010510196941DDE9084500196941DA
:1007A000BDE8F04DA2E72DE9F04D81EA030404F025
:1007B000004B21F0004514464FF0000A23F00041A1
:1007C00050EA050220D054EA01021DD0C5F30A57B1
:1007D0000246C5F31303C1F31300C1F30A5640F4F4
:1007E000801543F48013A7EB0608101BD64608F2C9
:1007F000FD3873EB050002D308F1010801E09218FF
:100800005B41B8F1000F03DA00200146BDE8F08D2E
:1008100000204FF48011064684460EE0171B73EB50
:10082000050705D3121B63EB050306434CEA010CD5
:1008300049084FEA300092185B4150EA0107EDD1B8
:1008400052EA030012D082EA040083EA0501084359
:1008500005D0101BAB4106D20122002306E0002286
:100860004FF0004302E06FF0010253101AEB060054
:100870004CEB085110EB0A0041EB0B01BDE8F04DC9
:10088000FFF734BF064C074D06E0E06840F0010377
:1008900094E8070098471034AC42F6D3FFF78AFC7F
:1008A0009CDA0008BCDA0008C0B24FF4F05100F046
:1008B000B1B900002DE9FF4F087883B09946FF28B1
:1008C00005D0491C2D2804D00024002008E0002079
:1008D0000BE00124F9E700EB800003EB4000491C2A
:1008E0000B78FF2BF7D104B1404200230293147818
:1008F00019461D462D2C01D02B2C04D1521C2D2C19
:1009000013D000240294AA461478FF2C0FD00A2595
:10091000A3FB057801FB05814FF0000C03FB0C11D4
:10092000521CE3194AEB0101EEE70124EAE7814496
:1009300053EA010002D019F5C87F06DA03980021B6
:10094000C0E9001107B0BDE8F08F0025AE4E2F467C
:10095000DFF8B882184600F071F9CDE90001B9F16D
:10096000000002DAC9F1000400E004460023A74AAF
:100970001AEB030B42EB045A12E0E00707D02A46B9
:10098000334638464146FFF739FD074688462A4632
:10099000334610461946FFF731FD05460E466410F2
:1009A000002CEAD1DDE90001B9F1000F5A465346A7
:1009B00006DAFFF7F8FE3A464346FFF7F4FE05E095
:1009C000FFF71CFD3A464346FFF718FD029A0AB1AD
:1009D00081F00041039AC2E90001B3E72DE9FF4F1E
:1009E0001F468DB0D7E901464FF0FF382E2045460F
:1009F0004FF000090B90B9696D1C0E988847396A51
:100A0000824688470028F6D1BAF1FF3F0AD024F485
:100A1000D064002E11DDBAF12B0F08D0BAF12D0FE2
:100A20000BD102E0404611B08DE744F48064B9690F
:100A30006D1C0E9888478246761E6946600501D572
:100A40002D2000E02B208DF8000001F1010B0DF1AD
:100A5000200809E0B9696D1C0E98884782460F98F6
:100A600044F40074761E0560002E02DDBAF1300FEA
:100A7000F0D00B998A453ED144F0800406E00F99EE
:100A8000681CA9F1010944F400740860B9696D1C7F
:100A9000761E0E98884782463028F0D02BE00B99BE
:100AA0008A4505D1200603D444F08004761E18E060
:100AB000504601F01DFF08B30DF11301761E44F4FA
:100AC00000748B4508D2AAF130000BF8010B200608
:100AD00007D5A9F1010003E0200602D409F10100C5
:100AE0008146A00502D50F99681C0860B9696D1C84
:100AF0000E9888478246002ED1DC53E0002E51DD4F
:100B0000BAF1650F02D0BAF1450F4BD1A00549D516
:100B1000B9696D1C24F44074761E0E98884782468D
:100B2000002E0CDD2B2804D0BAF12D0F07D144F490
:100B30008074B9696D1C0E9888478246761EE00560
:100B400001D52D2100E02B2108F8011BCDF82C80C8
:100B500021E00DF12901761E44F4007488450CD281
:100B6000AAF1300010F0FF0088F8000002D10B99C4
:100B7000884509D908F1010806E0E00501D52448B7
:100B800001E042F20F708146B9696D1C0E988847EA
:100B900082460F980560002E04DD504601F0A8FE45
:100BA0000028D6D1F9690E988847FF208BF80000FD
:100BB00088F800000020069007904B466A4608A976
:100BC00006A8FFF777FEA00502D46FF001002AE720
:100BD00014F0240F0AD0E00714D1DDE906123868BA
:100BE000031D3B600068C0E900120BE0DDE906016F
:100BF00000F030F80146E00704D13868021D3A6081
:100C00000068016028460EE7000014400000F03F35
:100C1000F1D8FFFF7F2801D9002208E0064A02EB45
:100C20005002C007127800D1120902F00F02012011
:100C3000904008407047000022D400080EB540F2F2
:100C4000334202920022CDE900221346FFF75DFDF8
:100C500003B000BD01F0004330B421F0004150EA80
:100C6000010206D00A0DA2F56072C1F31301002A39
:100C700002DC30BC00207047440F44EAC104C100CC
:100C8000E01830BC00EBC250AFF300800029A8BFD1
:100C90007047401C490008BF20F00100704710B4A5
:100CA000B0FA80FC00FA0CF050EA010404BF10BC5A
:100CB000704749B1CCF1200421FA04F411FA0CF187
:100CC00018BF012121430843A3EB0C01CB1D4FEAC0
:100CD00000614FEA102042BF002010BC704700EBBB
:100CE000C35010440029A4BF10BC7047401C4900E9
:100CF00008BF20F0010010BC704770B58D1810F8C7
:100D0000014B14F0030201D110F8012B231106D17D
:100D100010F8013B03E010F8016B01F8016B521E63
:100D2000F9D1ABB110F8012B04F00C048A1A0C2C89
:100D300003D0A2EB84129B1C08E010F8014BA2EB3D
:100D40000422F8E712F8014B01F8014B5B1EF9D5BC
:100D5000A942D4D3002070BD10B50D4C012120460E
:100D600000F022F988B100220121204600F021F98B
:100D7000012000F024F801221146204600F019F964
:100D8000012000F01CF8002010BD4FF0FF3010BD16
:100D900000040240FEE77047704790F835100229C2
:100DA00003D08021416501207047052180F835106E
:100DB0000068016821F0010101600020704731B531
:100DC00000F0FCF8009C0546601C00D0641C00F09C
:100DD000F5F8401BA042FAD338BD00002DE9F84FCA
:100DE000DFF890B100224FF001084FF0030A4FF0F6
:100DF0000F090BF1040E00BF0B6808FA02F4234040
:100E0000A3426ED14D68022D01D0122D0ED1D5080E
:100E100000EB850CDCF820505607F70E09FA07F6B0
:100E2000B5430E69BE402E43CCF8206006685500DD
:100E30000F790AFA05FC07F0030726EA0C06AF4013
:100E4000374307604E68012E05D0022E03D0112EC5
:100E500001D0122E0ED18768CE6827EA0C07AE406B
:100E60003E4386604668A6430C79C4F30014944060
:100E700034434460C4688E6824EA0C04AE402643C0
:100E8000C6604C68E4006FD53B4C256845F480454E
:100E90002560246822F0030504F480440094374C54
:100EA0002E19D6F8084895072F0F09FA07F5AC4315
:100EB000334DA84201D100252EE0324DA84201D188
:100EC000012529E0304DA84201D1022524E02F4D13
:100ED000A84201D103251FE02D4DA84202D10425CF
:100EE0001AE041E02B4DA84201D1052514E02A4D1E
:100EF000A84201D106250FE0284DA84201D10725BF
:100F00000AE0274DA84201D1082505E0254DA84259
:100F100001D1092500E00A25BD402543C6F808583F
:100F2000DBF800405D464E689C43F60300D51C4349
:100F30002C60DEF8004075464E689C43B60300D531
:100F40001C432C600B4D08352C684E689C43F60200
:100F500000D51C432C60074D0C352C684E689C4313
:100F6000B60200D51C432C60521C102AFFF444AF7B
:100F7000BDE8F88F003C0140443802400030014099
:100F8000000002400004024000080240000C024041
:100F9000001002400014024000180240001C0240F1
:100FA00000200240002402400069084000D00120D7
:100FB00070470AB1816170470904FBE70148006886
:100FC000704700000000002002480168491C0160D1
:100FD00070470000000000200B4810B5016841F484
:100FE00000710160016841F480610160016841F4B1
:100FF00080710160032000F075F8002000F006F811
:1010000000F018F8002010BD003C024010B5044666
:1010100007484FF47A710068B0FBF1F000F0CFFDA3
:1010200000222146501E00F03DF8002010BD0000B7
:101030000400002010B5032000F054F800221146EF
:101040006FF00B0000F02EF8002211466FF00A003E
:1010500000F028F8002211466FF0090000F022F895
:1010600000221146501F00F01DF800221146101FEB
:1010700000F018F800221146901E00F013F800222C
:10108000BDE810401146501E00F00CB800F01F02E1
:10109000012191404009800000F1E020C0F80011DA
:1010A00070470000F0B40E4B1B680C46C3F30223DC
:1010B000C3F10705042D00D90425191D072901D204
:1010C000002300E0DB1E012606FA05F1491E21403F
:1010D00099409E40761E16403143F0BC00F0E0BFC0
:1010E0000CED00E0064900F0070208684FF6FF0328
:1010F000184040EA0220034A10430860704700008D
:101100000CED00E00000FA052DE9F84317480168EE
:1011100041F0805101600068154F00F080500126B9
:1011200000903E64FFF74AFF05464FF47A78114C71
:1011300005E000BFFFF742FF401B40450DD8606847
:10114000C003F7D57E64FFF739FF0546464607E042
:10115000FFF734FF401BB04202D90320BDE8F883FB
:1011600060688003F4D50020F8E7000040380240B2
:1011700000000E42007000402DE9F0470E460500C9
:1011800065D0DFF81481D8F80000F7B200F00F0046
:10119000B04207D288F80070D8F8000000F00F00C5
:1011A000B04254D128683D4C810712D5400703D581
:1011B000206840F4E05020602878000703D52068BC
:1011C00040F4604020602068A96820F0F0000843E7
:1011D00020602878C0072DD0304968680839012878
:1011E00012D0022813D0032811D0096889070029DA
:1011F0002DDA216821F0030101432160FFF7DEFEB3
:10120000814641F2883A0EE009688903EFE70968F0
:101210008901ECE7FFF7D2FEA0EB0901514502D9A5
:101220000320BDE8F0872068696800F00C00B0EB8F
:10123000810FEFD1D8F80010404601F00F01B14204
:1012400007D90770006800F00F00B04201D00120FC
:10125000E7E72878400705D52068E96820F4E050E2
:10126000084320602878000706D52068296920F403
:10127000604040EAC100206000F03CF82168084A64
:10128000C1F30311515CC840064908600020FFF714
:10129000BDFE0020C5E70000003C024008380240C7
:1012A0003CB80008040000200148006870470000B6
:1012B000040000200448054900680968044AC1F395
:1012C0008221515CC8407047040000200838024069
:1012D0004CB800080448054900680968044AC1F38D
:1012E0004231515CC8407047040000200838024079
:1012F0004CB80008154810B5006810F00C021448EE
:1013000013D01449042A0FD0082A0ED10F4C241FE1
:101310002268236802F03F025B0207D52068C0F311
:101320008810A0FB010106E0084610BD2168C1F34A
:101330008811A1FB00010023FEF754FF2168C1F3CF
:101340000141491C4900B0FBF1F010BD08380240D2
:101350000024F40040787D012DE9F84F050071D09C
:10136000DFF8D0922878A9F1040BC007ABF1040490
:101370004AD0D9F800104846C1F38101012908D0AC
:101380000068C0F3810002280AD1DBF800004002A7
:1013900006D52068800337D568680028DFD033E0A1
:1013A0006868B0F5803F10D0B0F5A02F206810D04D
:1013B00020F480302060206820F48020206068685D
:1013C000A8B1FFF7FBFD06460DE0206840F4803031
:1013D000F4E740F480202060F7E700BFFFF7EEFD60
:1013E000801B642873D820688003F7D50CE0FFF7D2
:1013F000E5FD064605E000BFFFF7E0FD801B642821
:10140000F0D820688003F7D428788B4F80074FF0FE
:10141000010A4FF000083DD5D9F80010484611F0F8
:101420000C0F08D00068C0F3810002280BD1DBF854
:101430000000400207D42068800715D5E86801281D
:1014400000D111E0F3E0E868B0B1C7F800A0FFF701
:10145000B5FD064605E000BFFFF7B0FD801B022882
:1014600035D820688007F7D52068296920F0F80072
:1014700040EAC10020600DE0C7F80080FFF79EFD44
:10148000064604E0FFF79AFD801B02281FD820685B
:101490008007F7D42878000724D56848696981B1A6
:1014A000C0F800A0FFF78AFD064604E0FFF786FDBE
:1014B000801B02280BD85F486C3000688007F5D588
:1014C00010E0C0F80080FFF779FD064605E074E003
:1014D000FFF774FD801B02286FD856486C300068F7
:1014E0008007F5D42878400753D552483830016832
:1014F00041F080510160006800F080500090504839
:10150000016841F480710160FFF758FD064604E070
:10151000FFF754FD801B02284FD849480068C005DA
:10152000F6D5444EA868683601280FD005283068E3
:1015300010D020F001003060306820F004003060EE
:10154000A868B8B1FFF73AFD00900FE0306840F0AE
:101550000100F4E740F004003060F7E7FFF72EFDEC
:101560000099411A41F28830814258D8306880078A
:10157000F4D50EE0FFF722FD009007E0FFF71EFD17
:101580000099411A41F28830814248D8306880077A
:10159000F4D4A86990B3D9F80010C1F381010229ED
:1015A00045D00228C7F8608003D0FFF707FD054645
:1015B00038E0FFF703FD064605E030E0FFF7FEFCEC
:1015C000801B02282BD820688001F7D4D5E90701B9
:1015D0000843A96A1B4A490802EB01416A6A41EAC9
:1015E0008211084395F82C1040EA0161CBF80010F5
:1015F000C7F860A0FFF7E2FC054606E015E000BF73
:10160000FFF7DCFC401B022809D820688001F7D5D1
:101610000BE000BFFFF7D2FC401B022802D90320D9
:10162000BDE8F88F20688001F4D40020F8E701209D
:10163000F6E700000838024000004742800E4742AB
:10164000007000400000FFFF70B5040005D00025C9
:10165000A56294F8510010B106E0012070BD84F835
:101660005050204600F030F8022084F851002068E5
:10167000016821F040010160D4E901010843D4E987
:1016800003121143084361690843218B01F400717F
:101690000843E1690843216A0843A16A08432168B5
:1016A0000860A069042101EA1040616A08432168CA
:1016B00048602068C16921F40061C161656501204D
:1016C00084F85100002070BD00B500680E4987B055
:1016D000884216D10D480021026842F4805202600F
:1016E000006800F480500590E02000900220CDE9D1
:1016F0000101032003900520049069460448FFF788
:101700006DFB07B000BD00000030014044380240CE
:10171000000002402DE9F84F044640680026984634
:1017200017460D464FF00409B0F5827F01D1A0683D
:1017300090B194F85000012819D04FF0010B84F8B3
:1017400050B0FFF73BFC009094F851004FF0000AB6
:1017500001280ED002267FE084F8519013460A46F5
:101760002046CDF8008000F031F9BDE8F88F022066
:10177000FBE7002D6FD0002F6DD084F85190C4F896
:1017800054A0A563A787E787C4F830A0A4F834A0C5
:10179000A4F836A0C4F840A0C4F844A0A0684FF450
:1017A0000047B84204D12068016821F480410160FB
:1017B00020680168490603D4016841F040010160D6
:1017C000E068B8B133E020688168C90706D0007BC3
:1017D00005F8010BE08F401EE0870BE0B8F1000F29
:1017E00023D0B8F1FF3F05D0FFF7E8FB0099411A7D
:1017F00041451AD2E08F0028E5D11BE020688168BE
:10180000C90706D0C06825F8020BE08F401EE087AC
:101810000DE0B8F1000F08D0B8F1FF3F07D0FFF797
:10182000CDFB0099411A414501D3032614E0E08F16
:101830000028E3D16068B0F5827F0AD1A068B84281
:1018400002D0B0F5806F04D12068016821F040011A
:101850000160606D00B1012684F851B084F850A099
:10186000304682E72DE9F84F044690F850000026F4
:10187000994617460D4601280DD04FF0010B84F80C
:1018800050B0FFF79BFB804694F85100B246012808
:1018900004D0022694E00220BDE8F88F002D7BD012
:1018A000002F79D0032084F85100C4F854A0256398
:1018B000A786E786C4F838A0A4F83CA0A4F83EA008
:1018C000C4F844A0C4F840A0A068B0F5004F04D10B
:1018D0002068016841F48041016020680168490680
:1018E00003D4016841F040010160E068B0F5006F89
:1018F000606804D030B3E08E012823D03EE010B100
:10190000E08E01281AD135F8021B206805E0206816
:101910008168890706D535F8021BC160E08E401E3C
:10192000E0860BE0B9F1000F34D0B9F1FF3F05D0EC
:10193000FFF744FBA0EB080149452BD2E08E0028BD
:10194000E5D11EE0216815F8010B087306E0206858
:101950008168890706D515F8011B0173E08E401ECA
:10196000E0860BE0B9F1000F14D0B9F1FF3F05D0CC
:10197000FFF724FBA0EB080149450BD2E08E0028BD
:10198000E5D14B46012202212046CDF8008000F02F
:10199000A8FB10B1032613E011E042464946204659
:1019A00000F08FFB18B101262020606508E0A068D8
:1019B00018B92068C16880680090606D00B1012688
:1019C00084F851B084F850A0304665E72DE9F84F0F
:1019D000044690F8500000260A9F9A4693460D460A
:1019E0004FF0010801280ED0012084F85000FFF7C5
:1019F000E5FA814694F85100616801280CD0B1F5F0
:101A0000827F07D102E00220BDE8F88FA16809B902
:101A1000042801D00226BDE055B1BBF1000F07D06C
:101A2000BAF1000F04D094F85100012802D004E06C
:101A30000126AFE0052084F8510000206065C4F85D
:101A400038B0A4F83EA0A4F83CA02563A4F836A0C2
:101A5000A4F834A02064606420680168490603D4B7
:101A6000016841F040010160E068B0F5006F606816
:101A700004D0E8B3E08E01283BD06AE010B1E08EDC
:101A800001282ED1216835F8020BC860E08E401E77
:101A9000E08626E0B8F1000F0DD0E08E58B1206846
:101AA0008168890707D535F8021BC160E08E401EAA
:101AB000E0864FF00008E08F58B120688168C907C0
:101AC00007D0C0682BF8020BE08F401EE0874FF074
:101AD0000108781C05D0FFF771FAA0EB0900B842A5
:101AE00046D2E08E0028D5D1E08F0028D2D136E052
:101AF000FFE7216815F8010B0873E08E401EE086B1
:101B000027E000BFB8F1000F0DD0E08E58B120687B
:101B10008168890707D515F8011B0173E08E401E07
:101B2000E0864FF00008E08F58B120688168C9074F
:101B300007D0C0680BF8010BE08F401EE0874FF024
:101B40000108781C05D0FFF739FAA0EB0900B8426C
:101B50000ED2E08E0028D5D1E08F0028D2D13B46AE
:101B6000012202212046CDF8009000F0BAFA08B117
:101B700003260FE04A463946204600F0A2FA18B183
:101B800001262020606505E0A06818B92068C168BA
:101B900080680090012084F85100002084F85000F3
:101BA000304631E74FF0E0210428086903D020F0E7
:101BB00004000861704740F00400FAE7704710B570
:101BC000401EB0F1807F01D3012010BD4FF0E02412
:101BD00060610F21601700F063FA0020A061072008
:101BE0002061002010BD10B5FFF7E8FF10BD704761
:101BF00010F8391F407808437047000070B502683C
:101C000004461068D168536910F00F0F50D003F0EC
:101C1000010501F4907635435DD0C20705D0CA05B1
:101C200003D5E26B42F00102E263420705D5DA0711
:101C300003D0E26B42F00202E263820705D5DA07C5
:101C400003D0E26B42F00402E263020705D5DA0733
:101C500003D0E26B42F00802E263E26B002A33D069
:101C6000800604D5880602D5204600F01FFB2068B8
:101C70004069E16BC0F38010090700D428B3204607
:101C800000F006FB2068416949061AD5416921F038
:101C900040014161606BA0B11B490165606BFFF7BA
:101CA0007CF8002810D0606B016DBDE870400847DB
:101CB000830610D58B060ED52046BDE8704000F097
:101CC000F5BA2046FFF793FF70BD2046FFF78FFF60
:101CD0000020E06370BD030606D50B0604D5204640
:101CE000BDE8704000F07EBC4006F3D54806F1D553
:101CF000D168204621F04001D160202184F83910BC
:101D000000F009F970BD00008122000870B50400E0
:101D100004D094F83900002510B106E0012070BD10
:101D200084F83850204600F023F8242084F8390045
:101D30002068C16821F40051C160204600F0FCFA1F
:101D40002068016921F4904101612068416921F016
:101D50002A0141612068C16841F40051C160E56316
:101D6000202084F8390084F83A00002070BD00007B
:101D700000B500680E4987B0884217D10D48016848
:101D800041F0100101600068694600F01000059004
:101D90004FF4C060009002200190012002900320C7
:101DA0000390072004900448FFF718F807B000BD1F
:101DB00000100140443802400000024090F83A30E0
:101DC000202B1DD1D1B1CAB190F83830012B17D0DA
:101DD00081628285C2850021C163222280F83A2077
:101DE00080F8381001684A6942F001024A610068CF
:101DF000C16841F49071C1600020704701207047B4
:101E00000220704700681349884221D11248011D01
:101E1000B0F8083290F80A225A54B0F80812821C1E
:101E2000491C89B2A0F808128A5C0D2A09D1C21C8B
:101E30008A5C0A2A05D1012280F80C22891EA0F8AA
:101E4000081289B2B1F5017F02D30021A0F808126F
:101E50007047000000100140800600202DE9F84383
:101E6000044690F839001F4616460D46202850D1EA
:101E7000A5B19EB194F8380001284AD0012084F819
:101E800038004FF00008C4F83C80212084F8390065
:101E9000FFF794F8A6848146E68426E00120BDE899
:101EA000F883E08C401EE084A0684B46B0F5805F6C
:101EB0004FF000024FF080012046009703D000F061
:101EC000C2FBE8B90DE000F0BEFBC8B92888216864
:101ED000C0F308004860206908B16D1C05E0AD1C26
:101EE00003E0216815F8010B4860E08C0028D8D188
:101EF0004B46002240212046009700F0A4FB08B189
:101F00000320CCE7202084F8390084F838800020B2
:101F1000C5E70220C3E77047034B462203A109A08F
:101F200000F0F0FBFEE7000054B800082E2E2F53FF
:101F300072632F73746D3332663478785F69742EF0
:101F40006300000025732C206C696E653A202564BF
:101F50002025735F4572726F720D0A00F0B51D483F
:101F600087B00024016841F080010160016801F040
:101F700080010591016841F001010160016801F0F3
:101F800001010591016841F0020101600068124EF3
:101F900000F002000590002210213046FFF709F8FA
:101FA0000E4F012211463846FFF703F8102000902B
:101FB0000125CDE90154694630460394FEF70EFF32
:101FC0000095CDE90154694638460394FEF706FFB3
:101FD00007B0F0BD3038024000000240000402406B
:101FE000104810B50E4901604FF482714160002124
:101FF00081600122C160C0E904125202C0E90621D9
:102000000162416281620A21C162FFF71DFB002863
:1020100005D0BDE81040452103A000F072BB10BD03
:1020200000300140180900202E2E2F5372632F73A9
:1020300070692E6300000000134810B5114901605B
:102040004FF4E1314160002181600C22C160C0E9A0
:1020500004128161C161FFF759FE18B159210BA02B
:1020600000F04FFB002202212520FFF71BF825205E
:10207000FFF70CF804490122891FBDE81040881DB4
:10208000FFF79CBE00100140900800202E2E2F5319
:1020900072632F75736172742E630000FEE77047E0
:1020A0000907090E002806DA00F00F0000F1E02011
:1020B00080F8141D704700F1E02080F8001470478C
:1020C000704738B50B46009204460022802100F08C
:1020D00008F8002804D0606D40F0200060650320FF
:1020E00038BD2DE9F0411D4617460E460446DDF881
:1020F000188035E0681C33D02DB1FEF75FFFA0EBF0
:102100000800A8422CD32068416821F0E00141601A
:102110006068B0F5827F0BD1A068B0F5004F02D0A7
:10212000B0F5806F04D12068016821F040010160A2
:10213000A06AB0F5005F0AD1206801684DF6FF7211
:10214000114001602068016841F4005101600120E4
:1021500084F85100002084F850000320BDE8F0818D
:102160002068806836EA000004D00020B842C1D15F
:102170000020F3E70120F9E7704710B5FEF724FFD0
:10218000BDE81040FFF72FBD70B5264892B000257E
:10219000016841F080510160006800F080501190AA
:1021A0002148016841F4404101600068022400F4C4
:1021B0004040119001200090000401908001CDE981
:1021C00006400F260896D820CDE9090404200B907C
:1021D0006846FFF7C1F800B1FEE7FEF795FF00B1D2
:1021E000FEE74FF4A050CDE90E504FF48050CDE9FA
:1021F0000C64109005210CA8FEF7BEFF00B1FEE7AD
:10220000FFF752F84FF47A71B0FBF1F0FFF7D7FC0B
:102210000420FFF7C7FC00221146501EFEF742FFC4
:1022200012B070BD40380240007000401048016894
:1022300041F4700101600F48016841F00101016043
:102240000C4A00210832116002680B4B1A400260F0
:10225000031D0A4A1A60026822F4802202600548BF
:102260000C30016002495806803908607047000050
:1022700088ED00E000380240FFFFF6FE1030002439
:1022800010B5806B0021C185C184FFF7B0FC10BD83
:102290000168CA6822F49072CA6001684A6922F033
:1022A00001024A61202180F83A10704710B590F879
:1022B0003A10222901D0022010BD8168B1F5805F5B
:1022C00011D00169002901681FD0496801F07F031E
:1022D000816A4A1C82620B70C18D491E0904090C77
:1022E000C18518D026E00269816A002A0268526816
:1022F00005D0D2B20A80816A491C8162ECE7C2F340
:1023000008020A80816A891CF7E74A68816A4B1CC7
:1023100083620A70E0E70168CA6822F49072CA60BA
:1023200001684A6922F001024A61202180F83A10CE
:10233000FFF768FD002010BD2DE9F041044600685C
:10234000016921F44052E168114301612168C868C4
:1023500049F20C6290432369A268E5691A436369F4
:102360002B431A430243CA602168486920F4407233
:10237000A06910434861E1696425B1F5004F9748B1
:10238000974A21684FF032083FD0914201D08142F4
:102390007CD1FEF79FFF00EBC00101EB00106168EC
:1023A0008900B0FBF1F6FEF795FF00EBC00101EBF1
:1023B000001061688900B0FBF1F0B0FBF5F06FF040
:1023C0001801484306EB800108EB0110B0FBF5F063
:1023D00000F0F006FEF77EFF00EBC00101EB0010FD
:1023E00061688900B0FBF1F0B0FBF5F006EB001678
:1023F000FEF770FF00EBC00101EB0010616889007F
:10240000B0FBF1F7FEF766FFD2E0914201D08142C6
:102410003DD1FEF75FFF00EBC00101EB00106168EA
:102420004900B0FBF1F0B0FBF5F00601FEF752FFFA
:1024300000EBC00101EB001061684900B0FBF1F74F
:10244000FEF748FF00EBC00101EB00106168490096
:10245000B0FBF1F0B0FBF5F06FF01801484307EB6B
:10246000800108EBC100B0FBF5F000F0F80006EBCE
:102470004006FEF72FFF00EBC00101EB0010616882
:102480004900B0FBF1F7FEF725FF3CE055E0FEF711
:1024900011FF00EBC00101EB001061684900B0FBC7
:1024A000F1F0B0FBF5F00601FEF704FF00EBC00110
:1024B00001EB001061684900B0FBF1F7FEF7FAFE8E
:1024C00000EBC00101EB001061684900B0FBF1F0C6
:1024D000B0FBF5F06FF01801484307EB800108EB03
:1024E000C100B0FBF5F000F0F80006EB4006FEF787
:1024F000E1FE00EBC00101EB001061684900B0FB98
:10250000F1F7FEF7D7FE00EBC00101EB00106168A8
:102510004900B0FBF1F0B0FBF5F06FF01801484353
:1025200007EB800108EBC100B0FBF5F000F00700FD
:10253000216830448860BDE8F081FEF7BBFE00EB07
:10254000C00101EB001061688900B0FBF1F6FEF7F5
:10255000B1FE00EBC00101EB001061688900B0FB27
:10256000F1F0B0FBF5F06FF01801484306EB800185
:1025700008EB0110B0FBF5F000F0F006FEF79AFE54
:1025800000EBC00101EB001061688900B0FBF1F0C5
:10259000B0FBF5F006EB0016FEF78CFE00EBC00179
:1025A00001EB001061688900B0FBF1F7FEF782FED5
:1025B00000EBC00101EB001061688900B0FBF1F095
:1025C000B0FBF5F06FF01801484307EB800108EB12
:1025D0000110B0FBF5F000F00F00A9E70014014076
:1025E0000010014090F83910212901D002207047D5
:1025F0008168B1F5805F016A0BD04A1C02620268F3
:1026000009785160C18C491E0904090CC1840ED09F
:1026100017E009880268C1F30801516001690029C7
:10262000016A02D0491C0162ECE7891CFBE70168E2
:10263000CA6822F08002CA600068C16841F04001A7
:10264000C160002070472DE9F041984617460E46BC
:102650000446069D1DE0681C1BD02DB1FEF7AEFCA4
:10266000A0EB0800A84214D92068C16821F4D071F9
:10267000C1602068416921F001014161202084F896
:10268000390084F83A00002084F838000320BDE8BF
:10269000F0812068006836EA000004D00020B842CB
:1026A000D9D00020F3E70120F9E7000070B5124807
:1026B000FFF7A4FAFEF782FC044604E0FEF77EFC76
:1026C000001B142804D80C48FFF792FA2028F5D1F3
:1026D000FEF774FC0446094D05E000BFFEF76EFCF2
:1026E000001B142806D8012229460348FFF766FB81
:1026F0000028F3D170BD0000900800208A08002057
:10270000FEE7FEE70FB4054B10B503A9044A029893
:1027100000F0F6F810BC5DF814FB000069A5000895
:102720007006002038B51D4614000BD001236A4600
:1027300006F0F4F9002804DB9DF800002040E84092
:10274000C0B238BD6FF0150038BD2DE9F8431E4604
:10275000089D14000F46804614D001236A4606F0F7
:10276000DDF900280CDB9DF80000B540A0432540B2
:102770000543EAB28DF800203946404606F0FEF9DE
:10278000BDE8F8836FF01500FAE770B5044602F073
:10279000030060F35F110A461E46049DA021606895
:1027A00006F0ECF906F0030646F07C02A121606811
:1027B00006F0E4F946F07802A121606806F0DEF93F
:1027C0001021204604F0B4FB00280DDB5DB1D4F8E5
:1027D000C000C06A022808D0A721606806F094F9FA
:1027E00000F003002870002070BDA821F5E700006C
:1027F0002DE9F0415508134604464E080A461A4989
:102800001AA0FFF77FFF1CA0FFF77CFF2046A16EF8
:1028100007F0EEFA074602463146204604F030FF44
:1028200000281EDB3A462946204606F0DFFB00283A
:1028300017DB3146204604F0C3FF002811DB294690
:10284000204606F037FC00280BDB2046E16E07F03F
:10285000CFFA02463946204604F094FB002800DBFC
:102860000020BDE8F08100002CD0000825733A203C
:1028700025752025750000000D0A000000000000ED
:1028800030B583B0044600F017F89FED090B0546FC
:102890008DED000B002221466846FDF7F4FE284628
:1028A00000F020F89DED000B03B030BD00000000EB
:1028B00000000000000000000148006870470000B0
:1028C0007C06002002E008C8121F08C1002AFAD1C5
:1028D00070477047002001E001C1121F002AFBD1A0
:1028E0007047000001490860704700007C06002026
:1028F00030380A2801D201207047002070470000BC
:102900002DE9FF4F8DB09B460F460446002606E09A
:1029100025280BD05A460F999047641C761C2078C6
:102920000028F5D111B03046BDE8F08F0025A8464B
:102930000122984900E0054314F8013F203B02FAC8
:1029400003F00842F7D120782E2817D114F8010F90
:1029500045F004052A280ED06FF02F022078A0F150
:10296000300109290AD808EB880102EB410100EB8C
:102970000108641CF2E757F8048B641C20786C286B
:102980000DD004DC4C2812D06A2811D104E0742840
:102990000DD07A280CD10AE045F4001507E06178E3
:1029A00045F48015814202D1641C05F58015641C34
:1029B0002278692A45D008DC002AB3D0582A69D089
:1029C000632A10D0642A08D13BE0702A67D0732AAA
:1029D00013D0752A5CD0782A5CD010465A460F99DD
:1029E0009047761CD3E017F8040B8DF80000002008
:1029F0008DF80100E946012003E057F8049B4FF0F1
:102A0000FF3069074FF0000501D40AE06D1C454511
:102A10000DDA8542FADB19F805100029F6D106E037
:102A20006D1C8542FCDB19F805100029F8D12E44F5
:102A300004E019F8010B5A460F9990476D1EF8D221
:102A4000A5E00A200021CDE90801C5F302500228C3
:102A50000DD001CFC117031E71F100030DDA4FF045
:102A6000000CD0EB0C006CEB01012D2308E0FF1DE6
:102A700027F00707F7E80201EDE72B0504D52B2324
:102A80008DF8283001233BE0EB0739D02023F7E70E
:102A90000A2000E010200021CDE9080107E0102005
:102AA000002145F00405CDE908014FF00808C5F301
:102AB000025002280FD001CF00214FF0000A2B074F
:102AC0001FD5702A0DD0DDE908C38CF0100C5CEA2C
:102AD000030C0CD015E0FF1D27F00707F7E80201F3
:102AE000EBE740228DF828204FF0010A0BE050EA76
:102AF000010306D030238DF828308DF829200223D9
:102B00009A46582A04D024A20DF120090B9209E01C
:102B100026A2F9E7DDE90823FDF764FB0B9B9B5C2C
:102B200009F8013D50EA0102F4D1ADEB0900203073
:102B30000890680701D44FF001080899884502DD24
:102B4000A8EB010000E000208046002506E00AA86E
:102B50005A46405D0F9990476D1C761C5545F6DB33
:102B600004E030205A460F999047761CB8F10001D6
:102B7000A8F10108F5DC05E019F8010B5A460F9998
:102B80009047761C0899481E08900029F4DC641CC4
:102B9000C5E60000092801003031323334353637BC
:102BA0003839616263646566000000003031323399
:102BB0003435363738394142434445460000000039
:102BC00070B515460E4604464FF455721BA120A061
:102BD000FFF798FDD4F8C000007830B140F25732CA
:102BE00016A11BA0FFF78EFD23E05EB140F25D321F
:102BF00012A117A0FFF786FDD4F8C00040F25F32A3
:102C0000C46A0AE040F263320CA111A0FFF77AFD1A
:102C1000D4F8C00040F26532846A08A10CA0FFF726
:102C200071FD4FF45A7205A109A0FFF76BFD022C4C
:102C300001D0284670BD681C70BD00002E2E5C417E
:102C400044393336315C6164393336312E630000E8
:102C500025732C206C696E653A2025640D0A0000EE
:102C60002DE9F0410C4647681646204920A0FFF7A1
:102C700049FD20A0FFF746FD4FF47A70B6FBF0F057
:102C8000616894F90020484300F18050450F0B2102
:102C9000384605F073FF00220C21384605F06EFF20
:102CA000207B00B1012040EA45020D21384605F0A5
:102CB00065FFA06807F060FE00F007020F213846AC
:102CC00005F05CFF20691C21B6FBF0F2384605F0E8
:102CD00055FF606907F050FE4007020F1D2138467E
:102CE00005F04CFF0020BDE8F081000098D10008FD
:102CF000257300000D0A00002DE9F8431446134621
:102D0000074688460A46D0F80490334933A0FFF7B7
:102D1000F9FC37A0FFF7F6FC4FEA8870050E28464D
:102D200007F009FC034664B1002000902A462321E5
:102D30004846FFF70AFD4FF49970844203DA0446CF
:102D400004E00120F1E7B4F5EC6F0ADAA4F599701C
:102D50004FF47A71484340F2BD5190FBF1F50026E3
:102D600009E0A4F2E1604FF47A7148434FF4BD6189
:102D700090FBF1F50C2640F2FF30854200D215B1F0
:102D8000854200D30546B8F1010F06D0B8F1020F15
:102D900012D06FF01500BDE8F883AA081821484644
:102DA00005F0ECFE05F0030232431A21484605F017
:102DB000E5FEA7F89A410DE0AA081921484605F05A
:102DC000DDFE05F0030232431B21484605F0D6FE26
:102DD000A7F89C410020DEE772D10008257320444B
:102DE00041432564203D202564206D5600000000ED
:102DF0000D0A0000F8B50C460646456829492A48E0
:102E0000FFF780FC2848001DFFF77CFC2288012189
:102E10003046FFF771FF628802213046FFF76CFFF2
:102E2000A079617A227A40EA41006179800741EA1B
:102E30004201800E01F0030140EA8100E179A27AAB
:102E400041EA420101F003010843C043C6B23F20FA
:102E500007F071FB03463F22232128460096FFF727
:102E600074FC802007F067FB0346207900908022E5
:102E700026212846FFF769FCE27A3021284605F032
:102E80007DFE227B3121284605F078FE627B3221CF
:102E9000284605F073FEA27B3321284605F06EFE1E
:102EA0000020F8BD84D10008F08700087FB50C46EB
:102EB0000068042301AA442105F030FEDDF8050076
:102EC0009DF8045020F07F40A4FB0010CDE90210D3
:102ED0004FF4FF12002302A807F022FBDDE90201F4
:102EE000E4FB0501CDE9020104B070BDF0B51D4859
:102EF00085B01546814233D84010814230D300243A
:102F0000CDE90214234602A82A6807F009FB4FF412
:102F1000FF17A0FB072CCDE9000101FB07C100232F
:102F200000FB03102968029E490851186041CDE951
:102F3000001068462A6807F0F3FA009829683A46B4
:102F4000A1FB0010CDE900100023684607F0E8FA65
:102F50002868DDE90012704340185441CDE90004AF
:102F600005B0F0BD80113C552DE9F0430746D0F87F
:102F7000009049A087B01446006813460D460A46E3
:102F80000190464946A0FFF7BDFB4EA0FFF7BAFBF4
:102F9000E8099621A0FB0110CDE90410E0094201E7
:102FA0000026334604A807F0BBFA049819210C3018
:102FB000B0FBF1F2521E402A6BDA012A00DC01223A
:102FC0004621484605F0DAFD032301AA4A21484676
:102FD00005F0FEFDE0224B21484605F0CFFD102212
:102FE0004E21484605F0CAFDCDE90256224600238F
:102FF00002A807F095FA4FF4FF13A0FB03C8CDE930
:10300000040101FB0381002200FB021061081CEB9C
:1030100001017041CDE90410029D2246002304A85D
:1030200007F07EFA2A4644214846049C05F0A6FD96
:1030300022464321484605F0A1FD220A4221484686
:1030400005F09CFD220C4121484605F097FD052224
:103050003F21484605F092FD01223F21484605F0F8
:103060008DFD86224C21484605F088FD01224D2128
:10307000484605F083FD05224D21484605F07EFDBA
:10308000012380225E21786800F0D4F907B0BDE802
:10309000F083402294E70000355BE80088D3000805
:1030A00025733A205261746520257520487A205096
:1030B0006172656E74205261746520257520487AAE
:1030C000000000000D0A00002DE9FF4782B00EA9A4
:1030D000DDE9128691E83006DDE9042306F002FE00
:1030E000002835D1421E04E049184041CDE90410C2
:1030F000521CDDE90410184F01237F1A8341F3D2DB
:10310000C8F80020DDE90401C6E9000122462B468B
:1031100004A807F005FA114ECDE90001A0FB06272F
:1031200001FB0671002300FB031069084FEA34031A
:10313000D2184841CDE9002022462B46684607F0C8
:10314000EFF90498C9F800000098CAF800000020C0
:1031500006B0BDE8F087000000BCA065F1FF7F006D
:103160002DE9FF4F91B00025012091466C1E0E9075
:103170009B462E462746DDF878801C227C4906A80F
:10318000FDF771F8119890F8540108B1012002E0A0
:10319000119890F892018246119890F8550108B163
:1031A000012002E0119890F890010590B9F1010F0B
:1031B00004D0B9F1000F0BD06EA10AE012990AFBFE
:1031C00001F06E49B1EBC00FF6D9002081460E9098
:1031D0006BA1CDE900A166496CA02339059B129A29
:1031E000FFF790FA77A0FFF78DFA77491298884297
:1031F00005D900BF6FF0150015B0BDE8F08F02468D
:10320000059812994243119801FB0AF190F8560172
:1032100008B1022000E00120414348460DF1180E9C
:103220006A4B4AE00EEB8005DFF850C195F900606B
:10323000CCF1000C06FB01F55643AC449C453BD851
:10324000AE4203D9B6FBF5F1494201E0B5FBF6F118
:103250005F4A954206D80446012900D10021671A29
:103260002E4614E06E080446042802D0052804D037
:1032700007E0002905DB07270FE0002901DB012219
:1032800000E002221019012900D10021471A072F5E
:1032900003D2002C01DB062C27DDB9F1070F0FD27A
:1032A0000E9868B1CDF80080DDE9110109F1010245
:1032B0005B46FFF755FF9FE7401C0728B2DBECE7B2
:1032C000072F03D2002C01DB062C0EDD2B48854294
:1032D00001D240A200E045A225494AA02339FFF7C8
:1032E00011FA38A0FFF70EFA84E74021A5FB01028E
:1032F000DFF83CC149080023BCEB000C934101D22C
:103300000229F3D2CBE900050EEB84020EEB870114
:1033100092F90130B5FBF3F3CBF8083092F9024093
:10332000B3FBF4F3CBF80C3092F90320B3FBF2F2C9
:10333000B2FBFAF3CBE90423C8E9000691F90100D6
:10334000B6FBF0F0C8F8080091F90220B0FBF2F0EB
:10335000C8F80C0091F90310B0FBF1F0C8F81000A8
:103360000599B0FBF1F10020C8F8141044E7000003
:1033700044D200084E6F6D696E616C0040787D012B
:1033800048696768657374204F53520025733A206B
:10339000726571756573746564207261746520254A
:1033A0007520545846495220696E74202575205264
:1033B0005846495220646563202575206D6F646509
:1033C000202573000D0A00000080A903C027A8244F
:1033D00000D0121341444320636C6F636B2062651D
:1033E0006C6F77206C696D69740000004242504C2C
:1033F0004C20726174652061626F7665206C696D26
:103400006974000025733A204661696C6564207414
:103410006F2066696E64207375697461626C6520E3
:1034200064697669646572733A2025730000000050
:1034300080113C552DE9F0471D4691460F46064642
:1034400041F288344FF49668484607F074F8034612
:103450004A4639467068FFF765F9A84202D1002054
:10346000BDE8F087162F10D05FF0780008F0D6F98D
:10347000641EE9D24A46394605A0FFF743F90DA07C
:10348000FFF740F96FF06D00EAE74046EEE7000015
:1034900043616C6962726174696F6E2054494D4575
:1034A0004F55542028307825582C2030782558291D
:1034B000000000000D0A000070B50D46044641F6FC
:1034C000570206A10AA0FFF71DF9204601F092FA63
:1034D000A068E1686843B0FBF1F070BD2E2E5C413E
:1034E00044393336315C6164393336312E63000040
:1034F00025732C206C696E653A202564200D0A0026
:1035000070B50446106801251646884206D801EBBE
:103510005001B1FBF0F0C4E902050EE000EB5100F0
:10352000B0FBF1F0C4E9025038B90A490AA0FFF72C
:10353000E9F80EA0FFF7E6F8E5600021204604F068
:10354000E9F9002805DB3068E168B0FBF1F0A1681B
:10355000484370BD50D3000825733A2064697669EA
:103560006465206279207A65726F00000D0A0000A0
:103570002DE9F0411546134604460E460A46134906
:1035800013A0FFF7BFF81BA0FFF7BCF80127AE425E
:1035900006D306EB5500B0FBF5F0C4E902070EE0D8
:1035A00005EB5600B0FBF6F0C4E9027038B90749E4
:1035B00011A0FFF7A7F80FA0FFF7A4F8E7602046D7
:1035C000BDE8F041012104F0A5B900006DD3000869
:1035D00025733A205261746520257520487A205061
:1035E0006172656E74205261746520257520487A79
:1035F000000000000D0A000025733A206469766916
:103600006465206279207A65726F00002DE9F041CF
:1036100004460D460A464768104911A0FFF772F8A4
:1036200013A0FFF76FF80521384600F023F9012DAC
:1036300010D00022207C13280ED00021384605F03F
:10364000E3FB060000D4A560384600F0E6F93046FA
:10365000BDE8F0810122EDE70121EFE707D4000882
:1036600025733A20696E64657820256400000000A7
:103670000D0A00002DE9F0410546DDE9067414202D
:1036800007F0D2FA06006FF00B081AD03774747482
:103690006868C6E9000505EB8700C665082007F0E5
:1036A000C3FA040014D0142F22D2DFE807F019194E
:1036B000191B2426282A2C262E3032343A3C424626
:1036C0004A4A22A0FFF71EF82FA0FFF71BF802E0DE
:1036D000304606F055FF4046BDE8F041FDF75CBBC3
:1036E000A86819E0E86841683046FFF7DFFB6060D2
:1036F0002046BDE8F081A8690EE0E8690CE0286A80
:103700000AE0686A08E0A86A06E0286B04E0686BD3
:1037100002E0A86B00E0E86B41683046FFF7CCFEA2
:10372000E5E7286900E068694168304602F002FF79
:10373000DDE7D5F8C000806ED9E7D5F8C000006F8E
:10374000D5E7304603F002F9D1E700006164393370
:1037500036315F636C6B5F72656769737465723A6B
:1037600020636F756C64206E6F7420616C6C6F6386
:1037700061746520666978656420666163746F7240
:1037800020636C6B000000000D0A000000207047F1
:1037900070B51646134604460D460A461E491FA03C
:1037A000FEF7B0FF22A0FEF7ADFF00231A46194630
:1037B000204605F0AFFA00282CDB0521204600F05A
:1037C00059F8022D0CD0102D16D1D4F848013346EB
:1037D0004208D4F844014108204605F0FFFC0BE004
:1037E0002046D4F8A41006F003FB00F01FFC0246AC
:1037F0000B46204602F0DEFD94F8983194F89621AD
:1038000094F89711204605F085FA0546204600F009
:1038100004F9284670BD0000E7D2000825733A205D
:1038200043414C202575204152472025640000006B
:103830000D0A0000F8B506468807040E1546204616
:1038400006F079FE03460095224603217068FEF7D4
:103850007CFFF8BDF8B506468807040E15462046DD
:1038600006F069FE03460095224602217068FEF7C5
:103870006CFFF8BD2DE9F0410646D0F804800D46F6
:103880000A270F2006F057FE03460F221721404655
:10389000FEF748FFC4B286F8C440AC4202D12946C4
:1038A00028A021E02A46214632A0FEF72BFF3BA0AC
:1038B000FEF728FF1421404605F026F9C10603D57E
:1038C00020F01000012100E0002186F815110CB154
:1038D00020F00100052D10D0062D08D0082D09D0AC
:1038E0000A2D04D029462EA0FEF70CFF25E040F05B
:1038F000200406E040F0400403E020F0600040F0C7
:10390000050405221421404605F038F92246142109
:10391000404605F033F920B12BA00CE0012007F060
:10392000B9F9304600F06CF8A84202D07F1EF5D1FC
:1039300000E017B92CA0FEF7E5FEBDE8F04117A0A6
:10394000FEF7E0BE4E6F7468696E6720746F206486
:103950006F2C2064657669636520697320616C72E1
:103960006561647920696E202564207374617465D3
:103970000000000044657669636520697320696E04
:103980002025782073746174652C20666F726369DA
:103990006E6720746F202578000000000D0A00007B
:1039A0004E6F2068616E646C696E6720666F72206E
:1039B000666F7263696E6720256420656E736D2083
:1039C00073746174650000004661696C65642074FD
:1039D0006F20777269746520454E534D5F434F4E9B
:1039E0004649475F310D0A004661696C6564207481
:1039F0006F20726573746F726520737461746500F3
:103A000010B504460F2006F096FD03460F2217213D
:103A10006068FEF787FEC0B210BD90F8C41000F0D9
:103A200001B8000070B546680C46054614213046C2
:103A300005F06AF820F0640040F00102082C11D073
:103A400004DC052C11D0062C04D108E00A2C06D089
:103A5000FF2C18D0214617A0FEF754FE24E042F0B8
:103A6000200404E042F0400401E042F00104052299
:103A70001421304605F082F822461421304605F024
:103A80007DF878B903E014A0FEF73CFE0CE095F851
:103A9000150100280DD044F010021421304605F025
:103AA0006DF808B117A0EFE7BDE870401DA0FEF764
:103AB00029BE70BD436F756C64206E6F7420726593
:103AC00073746F726520746F20256420454E534DCA
:103AD00020737461746500004E6F206E656564200C
:103AE000746F20726573746F72652C20454E534D50
:103AF000207374617465207761736E27742073611D
:103B0000766564004661696C656420746F20777225
:103B100069746520454E534D5F434F4E4649475F9C
:103B2000310000000D0A00002DE9F8430F469046D1
:103B3000044690F8C510D0F8049000263A4691A0AB
:103B4000FEF7E0FD98A0FEF7DDFD94F8C5008028A3
:103B50001CD1D4F8C000007900B1102040F0070259
:103B60000921484605F00AF8142007F057FE0522FF
:103B70001421484605F002F801220021204605F0F4
:103B80000BFA01221146204605F006FAD4F8C010BF
:103B9000487908B1002000E008205FEA080200D060
:103BA0001022104394F8992102B18022104340F072
:103BB00001056FF01500082F12D005DC9FB3052F0B
:103BC00032D0062F04D106E00A2F12D0802F36D033
:103BD000394676A074E045F0200503E0064611E082
:103BE00045F040054A7842B994F8C520052AF5D138
:103BF0001EE04A7845F02005AAB9064694F8C500AB
:103C0000052857D015F0600F54D025F0600040F023
:103C100005021421484604F0B1FF05230F221721A5
:103C20002046FFF707FC03E025F0600040F00505A3
:103C3000D4F8C000417851EA080147D062E0002280
:103C40001146204605F0A8F900220121204605F082
:103C5000A3F900221421484604F090FFD4F8C000D4
:103C6000407808B1202200E040221421484604F0A8
:103C700085FF2046E16E06F0BBF85649B1FBF0F037
:103C800007F0CCFD00221421484604F077FF012004
:103C900007F0C4FDD4F8C000007908B1102200E09C
:103CA00000220921484604F069FF84F8C57000200D
:103CB000BDE8F883487808B147A100E047A148A0D3
:103CC000FEF720FD38A0FEF71DFD55E0007AC8B9CB
:103CD000062F01D0082F15D1102006F02CFC03462A
:103CE000062F25D000200090102215216068FEF7D5
:103CF0002CFD062F1ED040F2472101230222204630
:103D0000FFF798FB2A461421484604F037FF0600C7
:103D100002D03EA0FEF7F6FC23A0FEF7F3FC6806F7
:103D200028D594F8940140B194F8950128B121E088
:103D30000120D8E740F28721DFE740F2071841462B
:103D4000484604F0E1FE00F03F0594F89401A8B164
:103D50005FF0000045EA000294F8950180B1002070
:103D600002434146484604F009FF2A464146484678
:103D700004F004FF84F8C570304699E74020E9E775
:103D80008020EDE744657669636520697320696E7C
:103D90002025782073746174652C206D6F76696EB0
:103DA0006720746F202578000D0A00004E6F206890
:103DB000616E646C696E6720666F7220666F7263F5
:103DC000696E6720256420656E736D20737461745D
:103DD000650000000060E31646444400544444007B
:103DE000496E76616C696420454E534D2073746151
:103DF0007465207472616E736974696F6E20696E88
:103E0000202573206D6F6465000000004661696CB9
:103E1000656420746F20726573746F7265207374AB
:103E2000617465002DE9F84F1F0093460E46044665
:103E300001D050A000E051A000900EB152A200E0CD
:103E400052A25B46524953A0FEF75CFC57A0FEF716
:103E500059FC16B14025012001E00025022004EBA9
:103E60000609804699F8A90100B1012037EA00014E
:103E70004FF0010A2FD0D4F8C00016B1D0F88C0052
:103E800001E0D0F88800FA21B0FBF1F205F25B21E5
:103E9000606804F073FE0BF007000AEB401257460F
:103EA00005F25A21606804F069FE002205F25F21E4
:103EB000606804F063FE404606F03DFB0346009751
:103EC000424615216068FEF740FC0022314620463C
:103ED00005F062F84BE0B84349D0002205F25A21C0
:103EE000606804F04BFE802006F025FBCDF800A0B2
:103EF0000346574605F2362180228A466068FEF75F
:103F000024FC012006F017FB0097D4F804C00346F8
:103F100005F50E7101220F466046FEF716FC802063
:103F200006F009FB00250346009580225146606893
:103F3000FEF70BFC012006F0FEFA0095D4F804C051
:103F40000346012239466046FEF7FFFB0122314657
:103F5000204605F021F8404606F0EDFA03460095AC
:103F6000424615216068FEF7F0FB89F8A951002050
:103F7000BDE8F88F5072657061726500556E2D5006
:103F8000726570617265000054580000525800005C
:103F90008BD2000825733A2025732050726F666912
:103FA0006C652025753A2025730000000D0A00007D
:103FB00070B50546002401B1402402F007001A46FE
:103FC00060F31F1204F51771284604F0D7FD04F2C0
:103FD0005E212846BDE8704004F096BD2DE9F0470B
:103FE000002492468146621E20462546234690467E
:103FF000264609E019F803709FB1844201DD20468E
:104000001546424600245B1CDF17B3EB010CB74199
:10401000F0DB844201DD20461546CAF80050BDE8B9
:10402000F087571C00D11A46641CECE700210018E9
:10403000494170472DE9F84F0C460746D0F804A0D7
:10404000FD49FEA0FEF75EFBFDA0FEF75BFB2078BE
:10405000E021032802D06278032A00D1F02162789F
:1040600087F8940102F00303024663F39F0260782D
:104070000A4387F89501FA21504604F07FFD01209C
:1040800006F059FA0346E07B00900122FB215046DE
:10409000FEF75BFB022006F04EFA0346207C009000
:1040A0000222FB215046FEF750FB042006F043FAA3
:1040B0000346607B00900422FB215046FEF745FB3F
:1040C000A07808280DD2012800D80120A070401E39
:1040D00000F00701D7F8C000C07868B1E07B20B9D4
:1040E00001E00820F2E7207C30B1E07C012803D019
:1040F000022817D041F00801607C082815D2012859
:1041000000D801206074401E00F0070041EA401210
:10411000FC21504604F032FDD7F8C000C07830B121
:10412000282505E041F01001E6E70820EAE74C25E4
:104130002A46FD21504604F021FD2A4640F209118D
:10414000504604F01BFD2A464FF48671504604F099
:1041500015FDA07C082825D2012800D80120A074D4
:10416000401E4007020EFE21504604F007FD607B12
:1041700058B194F82500A27B00F0070060F35F12AD
:104180004FF48071504604F0F9FC2279E0784FF446
:1041900082714D1C824207D30246504604F0EEFC69
:1041A000227905E00820DAE7504604F0E7FCE278DF
:1041B0002946504604F0E2FCE0884FF0FF3505EB5D
:1041C00010123F2A00D33F224FF48471504604F06E
:1041D000D5FC208905EB10153F2D00D33F253F204E
:1041E00006F0A9F903463F2240F207115046009518
:1041F000FEF7ABFAD7F8C000C07888B158224FF468
:104200008571504604F0BAFC182240F20D11504658
:1042100004F0B4FC27224FF48D71504604F0AEFC3C
:10422000002240F20B11504604F0A8FC00224FF48B
:104230008771504604F0A2FC207B402800D3402028
:1042400042004FF48A71504604F098FC002281210C
:10425000504604F093FC402006F06DF94FF4AE7820
:104260000346012640224546414650460096FEF749
:104270006CFA202006F05FF90346202229465046BA
:104280000096FEF762FA207801282AD0607801288B
:1042900027D06089000906F06FFB05460F2006F065
:1042A0004AF903460F22414650460095FEF74DFA63
:1042B000E57D7F2D00D37F25A8467F2006F03BF9C2
:1042C00003467F2240F2011150460095FEF73DFA69
:1042D000657E7F2D00D37F2594F8200018B18022C1
:1042E00002E0206BD6E700222A434FF4907150463B
:1042F00004F044FC617DA8EB0100E17E00F00F00BA
:104300004A1B60F31F1240F22911504604F036FC9C
:10431000A07D227F00F00F0060F31F124FF4957113
:10432000504604F02BFC94F82C0000B1082094F8BF
:104330002D1001B18021084314F8181F01F0070166
:1043400040EA0112A07840F2231100F00700024376
:10435000504604F013FCA079627900F00F0060F37E
:104360001F124FF49171504604F008FC0F2006F024
:10437000E2F80346E0790F2200F00F0000904FF4BE
:1043800083715046FEF7E1F9607AA27A00F00F00DF
:1043900060F31F1240F22111504604F0EFFB1C2085
:1043A00006F0C9F80346E07A00901C2240F203119F
:1043B0005046FEF7CAF9207B00F00F02A07B183CA4
:1043C00000B1102002434FF49471504604F0D6FB24
:1043D000012006F0B0F8034614F8380F4FF488783F
:1043E0000090012241465046FEF7AFF9627840F254
:1043F0001B11504604F0C2FBA578383C6D1E072DFA
:1044000000D30725E02006F096F80346E02240F2AC
:10441000171150460095FEF798F9402006F08BF8EA
:10442000034694F83C0040F211190090402249469E
:104430005046FEF78AF905E062D1000825730000B6
:104440000D0A000094F83D503F2D00D33F253F203A
:1044500006F071F803463F224FF48C7150460095E8
:10446000FEF773F994F83E50032D00D30325C020C6
:1044700006F061F80346C0224FF48971504600955A
:10448000FEF763F994F83F50032D00D30325C020B5
:1044900006F051F80346C02240F213115046009531
:1044A000FEF753F994F84050072D00D30725E0207C
:1044B00006F041F803464FF48B7BE0225946504604
:1044C0000095FEF742F9802006F035F8034694F88F
:1044D00041000090802241465046FEF736F994F89C
:1044E0004250102006F027F80346012D3FD000204F
:1044F0000090102241465046FEF727F9042006F0AE
:104500001AF80346022D34D00020009004224146C0
:104510005046FEF71AF9802006F00DF8034694F88D
:1045200043000090802249465046FEF70EF994F869
:1045300044500F2D00D30F250F2005F0FCFF03463C
:104540000F22594650460095FEF7FFF894F84500B3
:1045500058B194F8470040B194F84B0028B194F852
:104560004C0010B194F84D0028B1012504E0012061
:10457000BEE70120C9E70025402005F0DCFF034627
:104580004022FB2150460095FEF7DFF894F84500E5
:10459000E0B30025802005F0CEFF0346802240F2E4
:1045A000151150460095FEF7D0F894F846503F2D6F
:1045B00000D33F253F2005F0BEFF03463F2240F2D7
:1045C000131150460095FEF7C0F894F849503F2D5E
:1045D00000D33F253F2005F0AEFF03463F224FF4B6
:1045E000897150460095FEF7B0F894F84850402085
:1045F00005F0A1FF03464022414650460095FEF7D4
:10460000A4F894F84700E8B3002500E049E008204A
:1046100005F091FF03460822414650460095FEF7FB
:1046200094F894F84A503F2D00D33F253F2005F0E1
:1046300082FF03463F2240F2191150460095FEF7D3
:1046400084F894F84B0070B394F84C0058B30025EC
:10465000022005F070FF03460222414650460095B5
:10466000FEF773F894F84B0010B30025802005F096
:1046700062FF034680224FF48A7150460095FEF790
:1046800064F800E010E094F84D00002578B394F849
:104690004E0078B101282BD002283BD0032858D1F6
:1046A00060E0012576E701E00125AEE70125CFE7CF
:1046B0000125DBE7202005F03EFF03462022494686
:1046C00050460096FEF741F8202005F034FF0346DF
:1046D00020224646414650460095FEF736F84020D7
:1046E00005F029FF03464022314600952EE039E0CF
:1046F000202005F020FF0346202249465046009521
:10470000FEF723F8202005F016FF0346202241463D
:1047100000961BE0202005F00EFF034620224946AC
:1047200050460096FEF711F8202005F004FF0346DE
:1047300000952022454641465046FEF706F84020A7
:1047400005F0F9FE03464022294600965046FDF743
:10475000FCFF94F84F00000906F00EF90F2813D261
:10476000044612E0202005F0E6FE034620224146E2
:1047700050460095FDF7E9FF202005F0DCFE0346DA
:10478000202249460095E1E70F24E02005F0D3FE02
:104790000346E0224FF4857150460094FDF7D5FFA3
:1047A000802005F0C8FE0346E0080090802240F219
:1047B00009115046FDF7C9FF3846BDE8F84F00F033
:1047C00001B800002DE9FC5F0546406801902846CD
:1047D000A96F05F00DFB06464FF4FA70B6FBF0F03A
:1047E0007F4AD5F8C010B2FBF0F2D1F804714FF453
:1047F0007A7A07F1C800804602EB500000F2E730F9
:10480000B0FBFAF091F8A8100844C4B21F2C03D2F0
:1048100010F0FF0F03D101E01F2400E000243F202F
:1048200005F089FE03463F22222100940198FDF7FE
:104830008CFF0446B6FBFAF0DFF8A89164377843A2
:1048400000EB090109F1010BB1FBFBF0401CC7B201
:104850001F2F03D210F0FF0F03D101E01F2700E04C
:1048600000271F2005F067FE03461F22FE21009748
:104870000198FDF76AFF40EA04074FF4FA60B6FBBF
:10488000F0F000FB0891D946B1FBF9F0C01DC4B2AD
:104890001F2C03D210F0FF0F03D101E01F2400E012
:1048A00000241F2005F047FE03461F2240F211118D
:1048B00000940198FDF749FF40EA0708B6FBFAF0BB
:1048C0006FF07C0114FB01F1474A02EB0112D5F8AD
:1048D000C010D1F8BC3003FB00204FF4FA6200F5A1
:1048E0007A70B0FBF2F44148844200D214B18442A1
:1048F00000D3044695F89401012835D095F8950128
:10490000012831D02846E96F05F072FA06EB50070E
:104910002846E96F05F06CFAB7FBF0F16200B2FBD4
:10492000F1F2D5F8C000B0F89E00B2FBF0F2022A16
:1049300001D2B4FBF1F0000906F01EF807460F2083
:1049400005F0F9FD03460F224FF4AE710097019870
:10495000FDF7FBFE202005F0EEFD4FF4803B034603
:104960005C4504D3012003E0D1F8C400E3E7002054
:10497000009020224FF494710198FDF7E6FE40EA82
:1049800008075C4500D36408E2B24FF492710198C5
:1049900004F0F4F840EA0708220A40F225110198D1
:1049A00004F0ECF840EA0804B6FBFAF0D5F8C010C1
:1049B0000F4AD1F8C81001FB0021B1FBF9F51F2DFA
:1049C00000D31F251F2005F0B6FD03461F2240F22D
:1049D000171100950198FDF7B8FE2043BDE8FC9F34
:1049E000809FD5003F420F0030F8FFFFFFFF01001E
:1049F00020A107002DE9F04704460768007C002647
:104A000001254FF42B786FF015090E2837D2DFE817
:104A100000F0070E253639444A585E6A71777D8466
:104A20004521384604F070F800F003001FE0012033
:104A300005F081FD0346012240F2AB213846FDF727
:104A400071FE0546802005F076FD03468022414632
:104A50003846FDF767FE40EA450008E00C2005F007
:104A60006AFD03460C2241463846FDF75BFE0028EE
:104A700062D0012862D0022866D0032867D0484659
:104A8000BDE8F0870A21384604F03EF800F007013F
:104A900005FA01F0C4E9025023E0302005F04BFD97
:104AA0000346302204E0082005F045FD03460822B5
:104AB00003213846FDF736FE0121401CC4E90210EF
:104AC0000FE0042005F037FD03460422F0E7032041
:104AD00005F031FD03220346114624E00120C4E91C
:104AE00002053046CCE7082005F025FD08220346E4
:104AF0000A21DEE7302005F01EFD034630220AE0E1
:104B0000082005F018FD0346082204E0042005F003
:104B100012FD034604220221CBE7032005F00BFD22
:104B20000322034602213846FDF7FCFD10B1401E6A
:104B30008540D3E70125D1E7012009E001200221CA
:104B4000C4E9020100209BE701200421F8E70220CC
:104B50000121F5E72DE9F0478846144605464FF058
:104B600000094668D0F8A41005F042F9FFF75EFA94
:104B700000F02CFA07467F2005F0DDFC03467F227B
:104B800041463046FDF7CEFD0146A06007EB4700E9
:104B900005EBC000D0F8E020CC308A4205DA891A53
:104BA0004268C06801FB002500E045681F2005F051
:104BB000C2FC03461F2208F102013046FDF7B2FD98
:104BC000656060614846BDE8F08790F8540118B10F
:104BD00000200870002070470120FAE72DE9F04717
:104BE000D0F804909246804601290BD002290FD0BC
:104BF00028A0FDF787FD2CA0FDF784FD6FF01500C0
:104C0000BDE8F08700264FF42C774024354604E0B9
:104C10000226802440F2B5270425204605F08BFCAF
:104C20000346224603214846FDF77CFD6FF00A0447
:104C300048B1FA21484603F067FFF04000F0030056
:104C4000012804D015E019A0DAF800100AE040F2BB
:104C5000B321484603F058FFE84000F0070105295A
:104C600007D017A0FDF74EFD0FA0FDF74BFD204626
:104C7000C6E7D8F8C00052463946C07800284046FA
:104C800003D0BDE8F04700F065B8BDE8F047FFF796
:104C900061BF0000556E6B6E6F776E20527820708A
:104CA00061746820257500000D0A00005278257592
:104CB000206973206E6F7420656E61626C6564009C
:104CC0004661696C656420746F2072656164206759
:104CD00061696E2C207374617465206D2F6320618F
:104CE0007420257800000000084490F894011070AA
:104CF0000020704710B50C46D0F8A41005F078F8E5
:104D0000FFF794F9C4E90001002010BDD0F8440178
:104D100008600020704770B58AB00C4606461546FC
:104D200024216846FBF7B8FA621C00213046FDF7E3
:104D300047FF01466A463046FFF750FF0199296058
:104D40000AB070BD10B50C46C16F05F051F8206077
:104D5000002010BD2DE9F0470646D0F80480144627
:104D60000D4600277F2005F0E6FB03467F222946FB
:104D70004046FDF7D7FC4FF49879A060494640467D
:104D800003F0C2FE824649464046A26803F0F6FEA2
:104D90004FF49A71404603F0B7FEC0F3411100F0A2
:104DA0001F00A1612062202005F0C5FB03462022E0
:104DB00040F235114046FDF7B5FCE06196F814115C
:104DC000184BA26903EB8103164ED256236A0C36A8
:104DD00006EB011159561144134A10565246084425
:104DE000E0604946404603F0C9FE1F2005F0A3FBE2
:104DF00003461F22691C4046FDF794FC20611F20DA
:104E000005F099FB03461F22A91C4046FDF78AFCCA
:104E10006061D4E903121144084460603846BDE87B
:104E2000F087000014CE000868B8000808B5012912
:104E30000DD07621406802236A4603F06FFE0028F9
:104E400004DBBDF80000FA2140BA484308BD7421D4
:104E5000F0E770B514464A1C05460121FDF7B0FE87
:104E600001462846FFF7E2FF002801DB2060002012
:104E700070BD90F8550118B10020087000207047EF
:104E80000120FAE710B50C46D0F8A81004F0B0FFE6
:104E9000FFF7CCF8C4E90001002010BDD0F84801AC
:104EA000086000207047000070B50D46044640F2CF
:104EB000595209A10EA0FDF725FC2046D4F8901008
:104EC00004F096FF286040F25D5203A108A0FDF7B0
:104ED00019FC002070BD00002E2E5C414439333691
:104EE000315C6164393336315F6170692E63000073
:104EF00025732C206C696E653A202564200D0A000C
:104F000070B50C4645682E492EA0FDF7FBFB2EA080
:104F1000FDF7F8FB2079A179A27A40EA4100217AD5
:104F2000E37A890041EAC20108436179E27900F03D
:104F30000F0041EA4202617A890041EAC3010A4353
:104F400060F31F122021284603F018FE20786178B4
:104F5000E27840EA4100A178890041EAC2010843B1
:104F600000F00F022721284603F008FE227B2821AB
:104F7000284603F003FE627B2C21284603F0FEFD49
:104F8000A27B2921284603F0F9FDE27B2D2128464A
:104F900003F0F4FD227C2A21284603F0EFFD627C19
:104FA0002E21284603F0EAFDA27C2B21284603F09F
:104FB000E5FDE27C2F21284603F0E0FD002070BDD6
:104FC000C3D10008257300000D0A0000074B002222
:104FD0001B1A8A4101D300207047054B0022181A82
:104FE0008A4101D30120704702207047006D7C4D3B
:104FF00000286BEE2DE9F04180460D460026042086
:1050000006F00EFC04006FF00B077DD0022006F0C6
:1050100007FC6060002878D0082006F001FCA06042
:10502000002873D04FF4B87006F0FAFBC4F8C00043
:1050300000286CD07622F9A1FEA0FDF763FB28784A
:10504000207061686878487068786070A1686868E6
:105050004860E87A00B10120D4F8C0104870287B7D
:1050600000B10120D4F8C0108870287A00B1012066
:10507000D4F8C0100870D4F8C010687A8862D4F8E8
:10508000C010A87AC862687B00B10120D4F8C010B3
:105090000872A87B00B10120D4F8C0104872D4F87F
:1050A000C0106869C1F88800D4F8C0102869C1F838
:1050B0008C00287E00B10120D4F8C01081F8900047
:1050C000687E00B10120D4F8C01081F891002178E9
:1050D000002002297ED0A97E01B10121D4F8C02090
:1050E0009172E97E01B10121D4F8C020D172D4F8C7
:1050F000C020297F9173D4F8C020697FD173D4F880
:10510000C020A97F117403E0FEE3FEE3FEE3FEE3AB
:10511000D4F8C020E97F5174D4F8C02095F820104D
:10512000917495F8211001B10121D4F8C020D170FB
:10513000D4F8C020696A116695F8281001B10121E0
:10514000D4F8C020517395F8291001B10121D4F889
:10515000C020517195F82A1001B10121D4F8C02066
:105160009171D5E90C12D4F8C030C3E91A12D5E90F
:105170000E12D4F8C030C3E91C12D4F8C02095F840
:10518000401051755FF0300105EB860201EB860798
:10519000D4F8C030526C761CDA51062EF4DB0021B4
:1051A0005FF0480205EB810302EB8107D4F8C06091
:1051B000DB6D491CF3510629F4DBD4F8C020696F7C
:1051C0009167D4F8C020A96FD167D4F8C020E96FE7
:1051D000116200E0FEE3D4F8C020D5F880105162DF
:1051E000D4F8C020D5F88410C2F8801095F8881043
:1051F00001B10121D4F8C02082F884102278012165
:10520000022A7CD095F8892002B10122D4F8C0305E
:1052100083F80420D4F8C030D5F88C209A61D4F8F3
:10522000C030D5F89020DA61D4F8C03095F89420D9
:1052300083F89220D4F8C03095F8982083F8942011
:10524000D4F8C03095F8992083F89520D4F8C03070
:1052500095F89A2083F89820D4F8C03095F89B20D0
:1052600083F89620D4F8C03095F89C2083F89720D6
:10527000D4F8C030B5F89E20A3F89E2095F8A02061
:1052800002B10122D4F8C03083F8A120D4F8C03094
:10529000B5F8A220A3F89A20D4F8C030B5F8A4201D
:1052A000A3F89C20D4F8C03095F8A62083F8A0205D
:1052B000D4F8C03095F8A72083F8A220D4F8C030E5
:1052C00095F8A82083F8A620D4F8C03095F8A92036
:1052D00083F8A52095F8AA2002B10122D4F8C030A5
:1052E00083F8A32095F8AB2002B10122D4F8C03096
:1052F00083F8A42095F8AC20D4F8C03000E0FDE39A
:1053000083F8A720D4F8C03095F8AD2083F8B220F8
:10531000D4F8C03095F8AE2083F8B32095F8AF20CC
:1053200002B10122D4F8C03083F8B420D4F8C030E0
:1053300095F8B02083F8B120D4F8C03095F8B120AA
:1053400083F8B920D4F8C03095F8B22083F8B8209B
:10535000D4F8C030D5F8B420C3F8BC2095F8B820F4
:1053600002B10122D4F8C03083F8C02095F8B920EA
:1053700002B10122D4F8C03083F8C120D4F8C03083
:1053800095F8BA2083F8AB20D4F8C03095F8BB204C
:1053900083F8AC20D4F8C03095F8BC2083F8AD2059
:1053A000D4F8C03095F8BD2083F8AE20D4F8C030D2
:1053B00095F8BE2083F8B520D4F8C03095F8BF200A
:1053C00083F8B720D4F8C03095F8C02083F8B62011
:1053D000D4F8C03095F8C12083F8A920D4F8C030A3
:1053E00095F8C22083F8AA20D4F8C03095F8C320DD
:1053F00083F8AF20D4F8C03095F8C42083F8B020EB
:10540000D4F8C03095F8C82083F8A82095F8CC20AF
:1054100002B10122D4F8C03014E000002E2E5C410D
:1054200044393336315C6164393336315F617069D8
:105430002E63000025732C206C696E653A2025646C
:10544000200D0A0083F8BA20D4F8C030D5F8D02057
:10545000C3F8C420D4F8C030D5F8D420C3F8C8208D
:1054600095F8D82002B10122D4F8C03083F8CC20BE
:10547000D4F8C03095F8DC2083F8CD20D4F8C030C3
:1054800095F8E02083F8CE2095F8E42002B10122BF
:10549000D4F8C03083F8D020D4F8C03095F8E82094
:1054A00083F8D120D4F8C03095F8EC2083F8D220CE
:1054B000D4F8C03095F8F02083F8D320D4F8C03069
:1054C00095F8F42083F8D42095F8F82002B1012251
:1054D000D4F8C03083F8D520D4F8C03095F8FC203B
:1054E00083F8D62095F8002102B10122D4F8C0300B
:1054F00083F8D72095F8012102B10122D4F8C030F9
:1055000083F8D920D4F8C03095F8042183F8D82046
:10551000D4F8C03095F8082183F8DA2095F80C21EA
:1055200002B10122D4F8C03083F8DB2095F80D21B8
:1055300002B10122D4F8C03083F8DC20D4F8C030A6
:1055400095F8102183F8DD20D4F8C03095F81421A7
:1055500083F8DE2095F8182102B10122D4F8C0307A
:1055600083F8DF2095F8192102B10122D4F8C03068
:1055700083F8E02095F81A2102B10122D4F8C03056
:1055800083F8E120D4F8C03095F81C2183F8E2209C
:10559000D4F8C03095F8202183F8E320D4F8C03047
:1055A000D5F82421C3F8E820D4F8C030D5F8282154
:1055B000C3F8F020D4F8C03095F82C2183F8E4200B
:1055C00095F82D2102B10122D4F8C03083F8E520EE
:1055D000D4F8C030D5F83021C3F8EC20D4F8C0306E
:1055E000D5F83421C3F82021D4F8C030D5F83821BB
:1055F000C3F81C2195F83C2102B10122D4F8C03037
:1056000083F82821D4F8C030B5F84021A3F824212C
:1056100095F8442102B10122D4F8C03083F8292141
:1056200095F8452102B10122D4F8C03083F82A212F
:1056300095F8462102B10122D4F8C03083F82B211D
:10564000D4F8C03095F8482183F82F21D4F8C03021
:1056500095F84C2183F83021D4F8C030B5F85021AA
:10566000A3F8262195F8542102B10122D4F8C030C4
:1056700083F82C2195F8552102B10122D4F8C030CD
:1056800083F82D2195F8562102B10122D4F8C030BB
:1056900083F82E21D4F8C03095F8582183F83121B1
:1056A000D4F8C03095F85C2183F83221D4F8C030AA
:1056B000D5F86021C3F81421D4F8C030B5F86421BE
:1056C000C3F81021D4F8C03095F8662183F80C2176
:1056D00095F8672102B10122D4F8C03083F818216F
:1056E000D4F8C03095F8682183F8FE20D4F8C03093
:1056F00095F8692183F8FD20D4F8C030D5F86C21E5
:10570000C3F80421D4F8C030B5F87021A3F8002103
:10571000D4F8C030B5F87421A3F8022195F87821A7
:1057200002B10122D4F8C03083F8082195F879211C
:1057300002B10122D4F8C03083F8092195F87A210A
:1057400002B10122D4F8C03083F80A21D4F8C03065
:1057500095F87B21DA74D4F8C03095F87C211A755D
:1057600095F87D21D4F8C030D20183F8F42095F863
:105770007E61D4F8C03042EA861283F8F42095F8AE
:105780007F61D4F8C03042EA461283F8F42095F8DD
:105790008061D4F8C03042EA061283F8F42095F80C
:1057A0008161D4F8C03042EAC60283F8F42095F84B
:1057B0008261D4F8C03042EA860283F8F42095F87A
:1057C0008361D4F8C03042EA460283F8F42095F8A9
:1057D0008461D4F8C030324383F8F42095F88521F1
:1057E000D4F8C030D20183F8F52095F88661D4F85A
:1057F000C03042EA860283F8F52095F88721D4F874
:10580000C030D20183F8F62095F88861D4F8C03012
:1058100042EA861283F8F62095F88961D4F8C03000
:1058200042EA461283F8F62095F88A61D4F8C0302F
:1058300042EA061283F8F62095F88B61D4F8C0305E
:1058400042EAC60283F8F62095F88C61D4F8C0309D
:1058500042EA860283F8F62095F88D61D4F8C030CC
:1058600042EA460283F8F62095F88E61D4F8C030FB
:10587000324383F8F620D4F8C02095F8906112F8EE
:10588000F53F06F003063343137095F89421D4F8DE
:10589000C030120183F8F72095F89861D4F8C03031
:1058A00006F00F06324383F8F72095F89C21D4F8D0
:1058B000C030120183F8F82095F8A061D4F8C03008
:1058C00006F00F06324383F8F820D5F8A4214B23C5
:1058D0004B3AB2FBF3F202F00703D4F8C02082F88F
:1058E000FA3095F8A861D4F8C02043EA461382F84C
:1058F000FA3095F8A92102B10122D4F8C0301A7308
:1059000095F8AC212AB103E02CE12DE131E132E13F
:105910000122D4F8C03083F8342195F8AD2102B1CA
:105920000122D4F8C03083F8352195F8AE2102B1B8
:105930000122D4F8C03083F8362195F8AF2102B1A6
:105940000122D4F8C03083F8372195F8B02102B194
:105950000122D4F8C03083F8382195F8B12102B182
:105960000122D4F8C03083F8392195F8B22102B170
:105970000122D4F8C03083F83A2195F8B32102B15E
:105980000122D4F8C03083F83B2195F8B42102B14C
:105990000122D4F8C03083F83C2195F8B52102B13A
:1059A0000122D4F8C03083F83D2195F8B62102B128
:1059B0000122D4F8C03083F83E2195F8B72102B116
:1059C0000122D4F8C03083F83F2195F8B821D4F8EB
:1059D000C03000E0D1E083F84021D4F8C03095F821
:1059E000B92183F84121D4F8C03095F8BA2183F861
:1059F0004221D4F8C03095F8BB2183F84321D4F874
:105A0000C03095F8BC2183F84421D4F8C03095F813
:105A1000BD2183F84521D4F8C03095F8BE2183F824
:105A20004621D4F8C03095F8BF2183F84721D4F837
:105A3000C030D5F8C021C3F84C21D4F8C03095F857
:105A4000C42183F85021D4F8C03095F8C82183F8D8
:105A5000512195F8CC2102B10122D4F8C03083F84D
:105A6000482195F8CD2102B1012254F8C03F83F8B6
:105A700049212368B5F8D021A3F852212368B5F84D
:105A8000D421A3F85421236895F8D82183F856210E
:105A9000236895F8DC2183F85721236895F8E021E5
:105AA00083F85821236895F8E42183F85921226866
:105AB000D1712368D5F8E821C3F85C212368D5F8B3
:105AC000EC21C3F860212368D5F8F021C3F86421E4
:105AD0002368D5F8F421C3F86821226882F8F90018
